:0400000000002A973B
:04000400000A8A93D1
:04000800000AA30344
:04000C00004AA38380
:04001000007302B3C4
:04001400005AA423C7
:04001800008AA503B2
:04001C000FF06293EC
:040020000F02F29346
:0400240000C50463AC
:0400280000730E3320
:04002C00000AA30320
:04003000004AA3835C
:0400340001CAA0233A
:04003800000AA50312
:04003C007FF00E93B0
:040040000FF00F139B
:0400440001DF7FB3A6
:0400480001DF66B3BB
:04004C0001DF473356
:04005000004F131337
:040054000FF003B7EF
:040058000043DE1370
:04005C004043DE93AC
:040060000062A43363
:04006400005324B36E
:04006800005039B358
:04006C000002BA33A1
:04007000008000EF1D
:0400740000C000EFD9
:0400780040628E3321
:04007C00000080E719
:04008000FFE0029308
:040084000022829341
:04008800FE028EE303
:04008C00FFF282936A
:04009000FE029EE3EB
:040094000800043725
:04009800080004B7A1
:04009C0000940A338F
:0400A00000A0089321
:0400A40000000073E5
:00000001FF
